:020000040000FA
:1000000083160030890000308800831209143F30C5
:10001000880037200630880037205B308800372082
:100020004F30880037206630880037206D308800D8
:1000300037207D30880037200730880037207F3018
:10004000880037206F3088003720773088003720CD
:100050007C30880037203930880037205E308800B7
:1000600037207930880037207130880037202830D9
:10007000A1000130A0003F20A10B3928080000009A
:080080000000A00B3F2808005E
:02400E00723FFF
:00000001FF
